:107000000C9434380C9446380C9446380C9446381A
:107010000C9446380C9446380C9446380C944638F8
:107020000C9446380C9446380C9446380C944638E8
:107030000C9446380C9446380C9446380C944638D8
:107040000C9446380C9446380C9446380C944638C8
:107050000C9446380C9446380C9446380C944638B8
:107060000C9446380C94463811241FBECFEFD8E05C
:10707000DEBFCDBF21E0A0E0B1E001C01D92A23093
:10708000B207E1F70E9497380C949D390C940038B0
:10709000E1ECF0E0808188618083E2ECF0E08081C7
:1070A0008E6080838CE08093C4001092C5000895A8
:1070B0009091C00095FFFCCF8093C6000895809109
:1070C000C00087FFFCCF8091C60090E008950F9329
:1070D0001F93CF93DF938B01EC01080F191FC0178B
:1070E000D10721F089910E945838F9CFDF91CF91D3
:1070F0001F910F91089510928000E1E8F0E0108256
:1071000010928500109284008081856080830895AC
:1071100010928500109284001092810008952898A2
:107120000E948838E0910001F09101010994CF9309
:10713000DF93CDB7DEB729970FB6F894DEBF0FBE49
:10714000CDBF209A0E9448380E947B3883E0289A5D
:107150002FE738E391E0215030409040E1F700C044
:1071600000002898EFE7F8E321E0E150F0402040EC
:10717000E1F700C00000815051F7289A82E40E9494
:107180005838C12CD12C7601198618865524539471
:1071900033E0432E0E945F388335B9F40E945F3894
:1071A0005C010E945F38A0E0B0E0C82AD92AEA2A30
:1071B000FB2AC501A0E0B0E0BA2FA92F982F88279D
:1071C000C82AD92AEA2AFB2AE5CF813481F40E9411
:1071D0005F38B82E0E945F3828853985282B392BD7
:1071E0003B2C212C2229332939872887D3CF80357E
:1071F00009F071C03FB7F894A884B98480E8A82248
:10720000F50140925700E89507B600FCFDCF40E03D
:1072100050E0BA0188849984840E951E4C155D0552
:107220006E057F0508F051C03401E89467F87724B3
:107230006114710451F45401F0E8AF22F501409259
:107240005700E89507B600FCFDCF8091840090912F
:1072500085008739910538F085B1852585B910926B
:107260008500109284003F834B835C836D837E8313
:107270000E945F38282F2A830E9458380E945F3866
:10728000982F99830E9458389981192F00E02A81FC
:10729000022BF401080150925700E89511243F8118
:1072A0004B815C816D817E81FEE76F16710441F434
:1072B00025E0F50120935700E89507B600FCFDCFC7
:1072C0004E5F5F4F6F4F7F4FA5CF81E18093570097
:1072D000E8953FBF5FCF823551F5812C912C540149
:1072E0008C149D04AE04BF0409F454CFE885F985DD
:1072F000E80DF91D84910E945838EFECF7E03197C2
:10730000F1F700C0000080918400909185008739DA
:10731000910538F085B1852585B9109285001092C8
:107320008400FFEF8F1A9F0AAF0ABF0AD9CF8135B9
:0E73300009F030CF0E948F382DCFF894FFCF98
:040000030000700089
:00000001FF
