:0200000280007C
:10000000D8250720B9030800E1050800E10508002C
:10001000E1050800E1050800E10508000000000016
:10002000000000000000000000000000E1050800E2
:10003000E105080000000000E1050800E1050800F6
:10004000E1050800E1050800E1050800E1050800F8
:10005000E1050800E1050800E1050800E1050800E8
:10006000E1050800E105080000000000E1050800C6
:10007000E1050800E1050800E105080000000000B6
:1000800000000000E1050800E1050800E1050800A6
:10009000E1050800E1050800E1050800E1050800A8
:1000A000E105080000000000E1050800E105080086
:1000B000E1050800E1050800E1050800E105080088
:1000C000E1050800E1050800E1050800E105080078
:1000D000E1050800E1050800E1050800E105080068
:1000E000E1050800E1050800E1050800E105080058
:1000F000E105080010B5064C2378002B07D1054B0D
:10010000002B02D0044800E000BF0123237010BD83
:10011000B405072000000000F4190800044B10B5D6
:10012000002B03D00349044800E000BF10BDC046C7
:1001300000000000B8050720F419080080B582B05F
:1001400000AF78607B68180000F098FDC046BD469F
:1001500002B080BD80B500AF0B20FFF7EFFF0C2091
:10016000FFF7ECFF0D20FFF7E9FF0E20FFF7E6FF9A
:10017000C046C046BD4680BD80B58CB000AF78603B
:1001800039607B68FB623B68BB62FB6A7B627B6AAF
:100190005A09FB6A3B623B6A1F210B4001219940CF
:1001A0000B00FA61BB61BB6A7B61FB693B613B6928
:1001B000254A944663445B02FB607B690822134036
:1001C00003D0FB68BA695A6602E0FB68BA691A662E
:1001D0007B692022134003D0FB68BA691A6502E0EC
:1001E000FB68BA695A657B69C022134003D0FB687B
:1001F000BA691A6202E0FB68BA695A627B698022B6
:10020000134004D0FB688421BA695A5003E0FB68AC
:100210008021BA695A507B690122134006D0FB68DD
:100220001A6FBB691A43FB681A6706E0FB681B6F0D
:10023000BA69D2431A40FB681A67C046C046C04636
:10024000BD460CB080BDC0460707200080B58CB00D
:1002500000AF78600A00FB1C1A707B68FB622B21E0
:100260007B18FA1C12781A70FB6A7B627B6A3B620D
:100270003B6A5B09FB61FB69184A944663445B0275
:10028000C046BB617B181B78012B09D1FB6A7B61DF
:100290007B691F22134001229A40BB691A610DE05D
:1002A0002B23FB181B78002B08D1FB6A3B613B69B1
:1002B0001F22134001229A40BB695A61FB6AFB600E
:1002C000FB681F22134001229A40BB69A0215A50AB
:1002D000C046C046BD460CB080BDC04607072000E2
:1002E00080B58AB000AF78600A00FB1C1A707B688A
:1002F0007B6223217B18FA1C12781A707B6AFB61DF
:10030000FB69BB61BB695B097B617B69104A9446F1
:1003100063445B02C0463B617B181B78002B09D00D
:100320007B6AFB60FB681F22134001229A403B69F5
:100330001A6308E07B6ABB60BB681F22134001227E
:100340009A403B695A63C046C046BD460AB080BD6C
:100350000707200080B582B000AF01F0B5F9FFF7C4
:10036000F9FE08213B20FFF707FF01213B20FFF7A3
:100370006DFF00213B20FFF7B3FF00213B20FFF77B
:10038000AFFF00237B6002E07B6801337B607B680A
:10039000084A9342F8D901213B20FFF7A1FF00232F
:1003A0003B6002E03B6801333B603B68014A93429B
:1003B000F8D9E2E7FEFF0F0080B582B000AF1E4B18
:1003C0007B601E4B3B607A683B689A420CD007E02A
:1003D0007A68131D7B603B68191D396012681A60CA
:1003E0003A68174B9A42F3D3164B3B6004E03B68E4
:1003F0001A1D3A6000221A603A68134B9A42F6D3EB
:10040000124B7B607A68124B12490A409A607A68F4
:1004100080239B059A420AD37B680F4A934206D8F1
:100420000B4B9A680A4B802189050A439A6001F0B8
:1004300001FAFFF78FFFFEE7F4190800000007201C
:10044000B4050720B4050720D405072000000800E4
:1004500000ED00E080FFFF1FFFFF0F2080B500AF21
:10046000594B1B6B03221340032B00D98CE0022B4A
:100470003DD2002B02D0012B0FD085E0534B5B699E
:100480008022134004D0524B802212021A607BE07B
:100490004F4BFA22D2011A6076E04B4B1A6A802346
:1004A0005B04134003D04A4B4A4A1A606CE0484B45
:1004B000494A1A60444B1B6A70221340202B0AD011
:1004C00011D8002B11D0102B0DD1414B1B685A00B5
:1004D0003F4B1A600AE03E4B1A6813005B009A1803
:1004E0003B4B1A6002E0C0464EE0C0464CE0364B43
:1004F0001A6A80235B04134003D0354B354A1A60D7
:100500001EE0334B344A1A602F4B1B6A7022134093
:10051000202B0AD011D8002B11D0102B0DD12C4B31
:100520001B685A002A4B1A600AE0294B1A6813000C
:100530005B009A18264B1A6002E0C04600E0C046F5
:10054000214B1B6B03221340022B19D11E4B9B6ABC
:100550001B0C5B055B0D5A1C1D4B1B685A431C4B47
:100560001A60194B9B6AFF221A40194B1B68110035
:10057000180001F0D3F803001A00154B1A6002E0CE
:10058000134B164A1A60C0460F4B1B6B7022134068
:10059000702B0AD10E4B1B680321180001F0BEF826
:1005A00003001A000A4B1A600AE0074B1B6B1B0979
:1005B00007221A40064B1B68D3401A00044B1A60EE
:1005C000C046BD4680BDC04600060E40101A0E4013
:1005D00084010720001BB70000093D00001C4E0EDF
:1005E00080B500AFFEE7000080B582B000AF786054
:1005F000094B1B6B702293431900074B7A680A431F
:100600001A63C046044B9B6E08221340FAD0C046C2
:10061000C046BD4602B080BD00060E4080B582B027
:1006200000AF7860094B1B6B032293431900074B03
:100630007A680A431A63C046044B9B6E0822134033
:10064000FAD0C046C046BD4602B080BD00060E408E
:1006500080B584B000AF78601A4B1A6B194B032138
:100660008A431A6380231B01FB6007E0FB68002BB1
:1006700001D1012322E0FB68013BFB60114B9B6E23
:1006800008221340F2D00F4B1B6B702293431900CA
:100690000C4B7A680A431A6380231B01FB6007E056
:1006A000FB68002B01D1012308E0FB68013BFB60E4
:1006B000044B9B6E08221340F2D000231800BD4665
:1006C00004B080BD00060E4080B584B000AF7860F5
:1006D0001C4B1B6B032293431A001A4B01210A4344
:1006E0001A6380231B01FB6007E0FB68002B01D12C
:1006F000012322E0FB68013BFB60124B9B6E08224A
:100700001340F2D00F4B1B6B7022934319000D4B1B
:100710007A680A431A6380231B01FB6007E0FB68C9
:10072000002B01D1012308E0FB68013BFB60054B76
:100730009B6E08221340F2D000231800BD4604B07F
:1007400080BDC04600060E4080B584B000AF786022
:100750001C4B1B6B7022934319001A4B7A680A4397
:100760001A6380231B01FB6007E0FB68002B01D1AB
:10077000012322E0FB68013BFB60124B9B6E0822C9
:100780001340F2D00F4B1B6B032293431A000D4B07
:1007900002210A431A6380231B01FB6007E0FB6808
:1007A000002B01D1012308E0FB68013BFB60054BF6
:1007B0009B6E08221340F2D000231800BD4604B0FF
:1007C00080BDC04600060E4080B584B000AF7860A2
:1007D0001A4B1B6B702293431900184B7A680A431B
:1007E0001A6380231B01FB6007E0FB68002B01D12B
:1007F00001231FE0FB68013BFB60104B9B6E08224E
:100800001340F2D00D4B1A6B0C4B03210A431A63B1
:1008100080231B01FB6007E0FB68002B01D1012353
:1008200008E0FB68013BFB60044B9B6E0822134011
:10083000F2D000231800BD4604B080BD00060E4073
:1008400080B582B000AF78607B68012B05D1064B84
:100850009A68054B05490A439A60034B044A1A609B
:10086000C046BD4602B080BD101A0E40000010A563
:10087000080000A580B500AF074B5B6980221340DC
:1008800006D0064B9B6E8022134001D0012300E06E
:1008900000231800BD4680BD101A0E4000060E4011
:1008A00080B582B000AF7860154B1A6A144B1549B9
:1008B0000A431A62C046124B9A6E80239B02134071
:1008C000F9D00F4B1B6A104A1A407B681A430C4B35
:1008D000DC2189030A431A62C046094B9A6E8023C1
:1008E0009B021340F9D0064B1B6A084A1A40044B7E
:1008F000DC2189030A431A62C046BD4602B080BDAE
:1009000000060E40080037008FFFC8FFFFFFC8FE3B
:1009100080B582B000AF7860114B1A6A104B114954
:100920000A431A62C0460E4B9A6E80239B02134004
:10093000F9D00B4B1B6A0C4A1A407B681A43084BD0
:10094000DC2189030A431A62C046054B9A6E802354
:100950009B021340F9D0C046C046BD4602B080BDE0
:1009600000060E40080037008FFFC8FF80B500AFBB
:10097000054B1B6A054A1A40034BDC2189030A43D5
:100980001A62C046BD4680BD00060E4087FFC8FF04
:1009900080B500AF034B9A6E80239B021340180072
:1009A000BD4680BD00060E4080B584B000AF7860C3
:1009B0000E4B1B6AFB60FB6803229343FB607B6862
:1009C0001B021B041A0CFB681343094A1343FB6008
:1009D000064BFA681A62C046044B9B6E0122134014
:1009E000FAD0C046C046BD4604B080BD00060E40E9
:1009F0000100370080B582B000AF094B1B6A7B60F5
:100A00007B68032293437B607B68064A13437B60C9
:100A1000034B7A681A62C046BD4602B080BDC0462C
:100A200000060E400200370080B582B000AF084BD0
:100A30001B6A7B607B68032293437B60044B7A686C
:100A4000DC2189030A431A62C046BD4602B080BD5C
:100A500000060E4080B500AF034B1B6A0222134014
:100A60001800BD4680BDC04600060E4080B500AFF0
:100A7000034B9B6E012213401800BD4680BDC0464B
:100A800000060E4080B582B000AF786039607B68A8
:100A9000002B08D0124B1B6A124A1A40104B124905
:100AA0000A431A6218E00E4B1B6A104A1A403B6850
:100AB0001B021B041B0C1A43094B0D490A431A6203
:100AC000C046074B9B6E01221340FAD0044B1A6AB2
:100AD000034B08490A431A62C046BD4602B080BDB6
:100AE00000060E40FCFFC8FE02003701FCFFC8FFF5
:100AF000010037000000370180B582B000AF786098
:100B00007B68002B09D00B4B1B6A0B4A1A40094B20
:100B1000DC2189030A431A6208E0064B1B6A074A74
:100B20001A40044BDC2189030A431A62C046BD46C1
:100B300002B080BD00060E40FDFFC8FFFEFFC8FFEB
:100B400080B500AF034B9A6E80235B021340180000
:100B5000BD4680BD00060E4080B584B000AF786011
:100B60000C4B1B6AFB607B68002B05D0FB68802266
:100B700052041343FB6003E0FB68074A1340FB6029
:100B8000044BFA68DC2189030A431A62C046BD4659
:100B900004B080BD00060E40FFFFFFFE80B584B0AC
:100BA00000AFF860B9607A6000F022F87B68FF223D
:100BB0001A40BB681902FC239B010B401A43FB68D7
:100BC0001B0409490B401A43084B802189050A433D
:100BD0009A62C046054B9B6E02221340FAD0C04673
:100BE000C046BD4604B080BD0000FF0700060E40B1
:100BF00080B500AF034B802292059A62C046BD4685
:100C000080BDC04600060E4080B500AF034B9B6E12
:100C1000022213401800BD4680BDC04600060E40AB
:100C200080B500AF064BC4229203DA61C046044B84
:100C30009B6E40221340FAD0C046C046BD4680BDE0
:100C400000060E4080B500AF044BDA69034B04493F
:100C50000A40DA61C046BD4680BDC04600060E406F
:100C6000FFFFFEFF80B500AF034B9B6E4022134099
:100C70001800BD4680BDC04600060E4080B584B059
:100C800000AF78600B497B687F221A4086235B00A7
:100C9000CA50084A86235B00D358074A1343FB60B7
:100CA000044986235B00FA68CA5000231800BD4639
:100CB00004B080BD00060E400010001080B584B066
:100CC00000AF78600C497B687F221A4086235B0066
:100CD000CA50094A86235B00D3588022520113432D
:100CE000FB60054986235B00FA68CA5000231800A0
:100CF000BD4604B080BDC04600060E4080B582B03F
:100D000000AF154B042252421A61C046124B9B6938
:100D1000032293430433F9D10F4980235B0001225E
:100D20005242CA50C0460C4A84235B00D358013358
:100D3000F9D140237B6006E07B681800FFF79EFF37
:100D40007B6801337B607B687F2BF5D9C046C0464A
:100D5000BD4602B080BDC04600060E4080B582B0E0
:100D600000AF144B042252425A61C046114B9B699A
:100D700003229343FAD10F4982235B00012252429E
:100D8000CA50C0460B4A84235B00D358002BF9D1CC
:100D900040237B6006E07B681800FFF78FFF7B68CD
:100DA00001337B607B687F2BF5D9C046C046BD46CA
:100DB00002B080BD00060E4080B582B000AF786002
:100DC0000A497B687F221A4086235B00CA50074A83
:100DD00086235B00D25880235B0513405A1E934143
:100DE000DBB21800BD4602B080BDC04600060E4012
:100DF00080B582B000AF78603960134A7B681033E9
:100E00009B009B58702293431A000F493B681A437A
:100E10007B6810339B005A50C0460B4B1B688022E6
:100E200051007A6891400A00134008D0064B9B6E2F
:100E3000802251007A6891400A001340EDD0C046EC
:100E4000BD4602B080BDC04600060E4080B582B0EF
:100E500000AF78603960134A7B6810339B009B5861
:100E6000072293431A000F493B681A437B681033EB
:100E70009B005A50C0460B4B1B68802251007A6879
:100E800091400A00134008D0064B9B6E802251000F
:100E90007A6891400A001340EDD0C046BD4602B0CA
:100EA00080BDC04600060E4080B584B000AF7860BB
:100EB000396010497B6810339B003A685A50802390
:100EC0001B01FB6007E0FB68002B01D101230CE054
:100ED000FB68013BFB60074B9B6E802251007A68E8
:100EE00091400A001340EED000231800BD4604B024
:100EF00080BDC04600060E4080B584B000AF78606B
:100F0000396011493B6801221A437B6810339B000A
:100F10005A5080231B01FB6007E0FB68002B01D1C6
:100F200001230CE0FB68013BFB60074B9B6E8022BA
:100F300051007A6891400A001340EED00023180057
:100F4000BD4604B080BDC04600060E4080B584B0EA
:100F500000AF7860396011493B6802221A437B6810
:100F600010339B005A5080231B01FB6007E0FB6895
:100F7000002B01D101230CE0FB68013BFB60074B18
:100F80009B6E802251007A6891400A001340EED097
:100F900000231800BD4604B080BDC04600060E40C8
:100FA00080B584B000AF7860396011493B68032296
:100FB0001A437B6810339B005A5080231B01FB604F
:100FC00007E0FB68002B01D101230CE0FB68013B2B
:100FD000FB60074B9B6E802251007A6891400A00AB
:100FE0001340EED000231800BD4604B080BDC046BB
:100FF00000060E4080B584B000AF786039601149BA
:101000003B6804221A437B6810339B005A508023AC
:101010001B01FB6007E0FB68002B01D101230CE002
:10102000FB68013BFB60074B9B6E802251007A6896
:1010300091400A001340EED000231800BD4604B0D2
:1010400080BDC04600060E4080B582B000AF78601B
:10105000054B802251007A6891400A001A60C04610
:10106000BD4602B080BDC04600060E4080B582B0CD
:1010700000AF7860054B802251007A6891400A00E9
:101080005A60C046BD4602B080BDC04600060E4054
:1010900080B500AF034BE022D2001A60C046BD46C7
:1010A00080BDC04600060E4080B500AF034BE02275
:1010B000D2005A60C046BD4680BDC04600060E4004
:1010C00080B582B000AF78607B68022B01D9002325
:1010D00007E0064B9B68802251007A6891400A0025
:1010E00013401800BD4602B080BDC04600060E4049
:1010F00080B582B000AF78607B681902044BF022A3
:1011000012010A409A63C046BD4602B080BDC04687
:1011100000060E4080B582B000AF78607B681A028E
:10112000F0231B011A40044B01210A439A63C04675
:10113000BD4602B080BDC04600060E4080B500AF7F
:10114000024B20221A60C046BD4680BD00060E40FC
:1011500080B500AF024B20225A60C046BD4680BD1C
:1011600000060E4080B582B000AF7860034B7A680D
:101170001A66C046BD4602B080BDC04600060E409D
:1011800080B582B000AF7860034B7A685A66C0467B
:10119000BD4602B080BDC04600060E4080B500AF1F
:1011A000024BDB6E1800BD4680BDC04600060E40F7
:1011B00080B500AF024B9B6E1800BD4680BDC04697
:1011C00000060E4080B582B000AF78607B685B039C
:1011D0005B0B7B60044B196F034B7A680A431A67F9
:1011E000C046BD4602B080BD00060E4080B582B04C
:1011F00000AF78607B685B035B0B7B60054B1A6F0D
:101200007B68D943034B0A401A67C046BD4602B00B
:1012100080BDC04600060E4080B582B000AF02001F
:10122000FB1D1A700E4B1A6F0D4B0E490A401A67C0
:101230000D4B1A690C4B04218A431A61FB1D1B7864
:10124000002B04D1BFF34F8FC04630BF03E0BFF384
:101250004F8FC04620BFC046BD4602B080BDC046CD
:1012600000060E40FFFFEFFF00ED00E080B582B00A
:1012700000AF144B1A6F134B802149030A431A67BE
:10128000114B1A69104B04218A431A61BFF34F8F27
:10129000C04620BF00237B6003E0C0467B6801336B
:1012A0007B607A68FA235B009A42F6D3C046054B0E
:1012B0001B6A08221340FAD0C046C046BD4602B0A1
:1012C00080BDC04600060E4000ED00E080B500AFD6
:1012D000064B1A69054B04210A431A61BFF34F8F6D
:1012E000C04620BFC046BD4680BDC04600ED00E000
:1012F00080B582B000AF064B1B6A7B60044B7A68F6
:1013000004490A431A62C046BD4602B080BDC046C9
:1013100000060E400000370280B582B000AF074BD8
:101320001B6A074A13407B60044B7A68DC218903FF
:101330000A431A62C046BD4602B080BD00060E4098
:10134000FFFFFFFD80B582B000AF78607B68002BA7
:1013500004D0064AE4230649D15003E0034AE423BB
:101360000449D150C046BD4602B080BD00060E40C3
:1013700001434D5000434D5080B500AF024AE82371
:10138000D3581800BD4680BD00060E4080B582B01F
:1013900000AF78607B68072B24D87B689A00134BDA
:1013A000D3181B689F460020FFF74AFA1AE0012075
:1013B000FFF746FA16E00020FFF772FA12E010205D
:1013C000FFF76EFA0EE02020FFF76AFA0AE03E21EE
:1013D0000020FFF757FB05E03E210120FFF752FBFD
:1013E00000E0C046C046BD4602B080BD7C19080082
:1013F00080B582B000AF78607B68072B1AD87B6815
:10140000032B10D27B68002B04D07B68013B012B9F
:1014100010D801E001230EE0FFF72CFA03005A1E5A
:101420009341DBB207E0FFF78BFB03005A1E9341A9
:10143000DBB200E000231800BD4602B080BD80B5DD
:1014400082B000AF78607B68072B18D87B689A0061
:101450000D4BD3181B689F46FA23DB0110E0802355
:101460001B020DE080231B020AE0084B08E0084B3A
:1014700006E0084B04E0074B02E0064B00E00023C7
:101480001800BD4602B080BD9C19080000093D004F
:1014900000127A00001BB70080B582B000AF0200D6
:1014A000FB1D1A70C046FB1D1B781800FFF7A0FF3C
:1014B00003001A0001235340DBB2002BF3D1C046D6
:1014C000C046BD4602B080BD80B586B000AFF860B2
:1014D0007A603B600B23FB180A1C1A707B68002B98
:1014E00007D13B68002B04D1FB68F02212041A607C
:1014F0001FE00B23FB181B781800FFF7A0FF030069
:101500007968180000F00AF903007B617B693A688A
:1015100053437B613B68013B1B04084A1A407B68CC
:10152000FF210B401343FC2292011A43FB681A600F
:10153000C046C046BD4606B080BDC0460000FF079D
:1015400080B582B000AF786039603B68002B09D16C
:10155000FFF74EFB7B681A68084B802189050A4318
:101560009A6206E07B681A68044B802149020A43AC
:10157000DA61C046BD4602B080BDC04600060E40DE
:1015800080B582B000AF78607B68002B03D1FFF795
:101590003BFB030002E0FFF765FB03001800BD46BC
:1015A00002B080BD80B582B000AF0200FB1D1A7092
:1015B000FB1D1B78033B042B0AD8FB1D1B7818006E
:1015C000FFF7E4FEFB1D1B781800FFF765FF00E046
:1015D000C046C046BD4602B080BD80B582B000AFF7
:1015E0007860C0467B681800FFF7CAFF031EF9D079
:1015F00000231800BD4602B080BD80B500AF0620B4
:10160000FFF71DFF02001300DB009B1A5B001800B0
:10161000BD4680BD80B500AFFFF7EFFF03005B085C
:101620001800BD4680BD80B582B000AF78607B6891
:101630001800FEF7D9FFFEF711FFC046BD4602B005
:1016400080BD80B582B000AF78607B68092B1CD06C
:101650007B68092B1DD87B68082B12D07B68082B70
:1016600017D87B68022B04D97B68033B042B10D866
:1016700003E00020FEF7D2FF0BE00120FEF7CEFFD3
:1016800007E00220FEF7CAFF03E00320FEF7C6FFD3
:10169000C046FEF7E3FEC046BD4602B080BD80B541
:1016A00082B000AFFFF7BCFA0020FFF733FDFFF771
:1016B00045FDC046BD4602B080BD80B500AFFFF716
:1016C00047FDC046BD4680BD80B582B000AF124B1D
:1016D000180000F085F90620FFF764FF381D0E237F
:1016E00001220621FFF7F0FE3B1D00211800FFF745
:1016F00027FF0020FFF771FF1020FFF725F8FEF706
:10170000ADFEFFF787FF0300180000F069F9C0463F
:10171000BD4602B080BDC04600BD010500224308A1
:101720008B4274D303098B425FD3030A8B4244D3A9
:10173000030B8B4228D3030C8B420DD3FF220902EB
:1017400012BA030C8B4202D31212090265D0030BAA
:101750008B4219D300E0090AC30B8B4201D3CB03A0
:10176000C01A5241830B8B4201D38B03C01A5241E2
:10177000430B8B4201D34B03C01A5241030B8B42E4
:1017800001D30B03C01A5241C30A8B4201D3CB02CF
:10179000C01A5241830A8B4201D38B02C01A5241B4
:1017A000430A8B4201D34B02C01A5241030A8B42B7
:1017B00001D30B02C01A5241CDD2C3098B4201D3CF
:1017C000CB01C01A524183098B4201D38B01C01A4D
:1017D000524143098B4201D34B01C01A52410309C4
:1017E0008B4201D30B01C01A5241C3088B4201D373
:1017F000CB00C01A524183088B4201D38B00C01A20
:10180000524143088B4201D34B00C01A5241411A46
:1018100000D20146524110467047FFE701B5002053
:1018200000F006F802BDC0460029F7D076E7704701
:101830007047C04670B50C4D0C4E761BB61005D0E7
:10184000002408CD01349847A642FAD100F0B8F838
:10185000074D084E761BB61005D0002408CD013484
:101860009847A642FAD170BDCC190800CC190800DF
:10187000CC190800D4190800034B10B5002B02D076
:10188000024800F005F810BD00000000A118080093
:1018900010B5010000230022002000F019F810BD4F
:1018A00070B5074D074C641BA41005D0013CA30084
:1018B000EB589847002CF9D100F08CF870BDC04669
:1018C000F0190800F41908007047C0467047C04678
:1018D000F0B5D6464F464646C0B5264F82B0060004
:1018E0003868924698468946FFF7EEFF224B1B6800
:1018F0000193A423019A5B00D558002D2ED06C686B
:101900001F2C30DC002E0FD1631C6B604B46023461
:10191000A40038686351FFF7D9FF002002B0E0BC93
:10192000BA46B146A846F0BD882251462800A30019
:10193000EB189950873AA2408930FF300168114373
:1019400001608421404649005850022EDCD12B0012
:101950008D33FF3319680A431A60D5E715004D35FA
:10196000FF35D550CBE73868FFF7B0FF0120404284
:10197000D4E7C046B0050720BC190800E2130800F0
:10198000A6130800AE130800B6130800BE13080023
:10199000C6130800CE130800D81308005814080016
:1019A0005E140800641408006A1408006E1408002D
:1019B00072140800761408007A14080088010720C1
:1019C000F8B5C046F8BC08BC9E46704779180800B8
:1019D0001D010800F8B5C046F8BC08BC9E4670471B
:1019E00001B40248844601BC604700BFC90007201B
:0419F000F5000800F6
:1019F40080B500AF284B8022D2001A60274B80228A
:101A0400D2001A60264B1A6A80235B04134008D163
:101A1400234B244A1A62C046214B9B6E0122134079
:101A2400FAD01F4B204A1A62C0461D4B9A6E80237F
:101A34005B021340F9D01A4B1B6B032293431A0029
:101A4400174B01210A431A63C046154B9B6E0822AB
:101A54001340FAD0124B154A9A62C046104B9B6E43
:101A640002221340FAD00E4B11221A63C0460C4BCB
:101A74009B6E08221340FAD0094B12221A63C04607
:101A8400074B9B6E08221340FAD0094B094A1A608F
:101A9400C046BD4680BDC046000A0E40000C0E4044
:101AA40000060E400908370009083701013F0D20E0
:101AB4008401072000BD010580B582B000AF7860C5
:101AC4007B68254A934206D8244B00221A60244B93
:101AD40000221A603BE07B68224A934208D81F4BDD
:101AE400802252001A601E4B802252001A602EE09F
:101AF4007B681D4A934208D8184B802292001A60D2
:101B0400174B802292001A6021E07B68174A9342A7
:101B140008D8124BC02292001A60114BC0229200C6
:101B24001A6014E07B68124A934208D80B4B802257
:101B3400D2001A600A4B8022D2001A6007E0074BD9
:101B4400A022D2001A60064BA022D2001A60C0461E
:101B5400BD4602B080BDC046BFEA2101000A0E4066
:101B6400000C0E407FF0FA02FF8FD003FFB3C404D1
:101B74007F4A5D0500093D00000000007404072051
:101B8400DC040720440507200000000000000000DA
:101B94000000000000000000000000000000000041
:101BA4000000000000000000000000000000000031
:101BB4000000000000000000000000000000000021
:101BC4000000000000000000000000000000000011
:101BD4000000000000000000000000000000000001
:101BE40000000000000000000000000000000000F1
:101BF40000000000000000000000000000000000E1
:101C040000000000000000000000000000000000D0
:101C140000000000000000000000000000000000C0
:101C240001000000000000000E33CDAB34126DE65D
:101C3400ECDE05000B0000000000000000000000C6
:101C44000000000000000000000000000000000090
:101C54000000000000000000000000000000000080
:101C64000000000000000000000000000000000070
:101C74000000000000000000000000000000000060
:041FA400D00507203D
:040000038000000079
:00000001FF
