:100000000C9434000C9449000C9449000C94490061
:100010000C9449000C9449000C9449000C9449003C
:100020000C9449000C9449000C9449000C9449002C
:100030000C9449000C9449000C9449000C9449001C
:100040000C9449000C9449000C9449000C9449000C
:100050000C9449000C9449000C9449000C944900FC
:100060000C9449000C94490011241FBECFEFD8E036
:10007000DEBFCDBF11E0A0E0B1E0E0E4F1E002C0FE
:1000800005900D92A230B107D9F70E9492000C940E
:100090009E000C940000E1ECF0E080818861808398
:1000A000E2ECF0E080818E6080838CE08093C4007D
:1000B0001092C50008959091C00095FFFCCF8093E9
:1000C000C60008958091C00087FFFCCF8091C600D4
:1000D00090E008950F931F93CF93DF938B01EC0172
:1000E000080F191FC017D10721F089910E945B00EA
:1000F000F9CFDF91CF911F910F9108951092800059
:10010000E1E8F0E010821092850010928400808176
:10011000856080830895109285001092840010926B
:10012000810008950E944B000E9462008235E1F731
:10013000E0910001F09101010995F6CFF894FFCF0D
:0201400000704D
:00000001FF
